:100000000C9472000C9486000C9486000C9486006C
:100010000C9486000C9486000C9486000C94860048
:100020000C9486000C9486000C9486000C94860038
:100030000C9486000C94CF000C9415010C9486004F
:100040000C9486000C9486000C9486000C94860018
:100050000C9486000C9486000C9486000C94860008
:100060000C9486000C9486000C9486000C948600F8
:100070000C9486000C9486000C9486000C948600E8
:100080000C9486000C9486000C9486000C948600D8
:100090000C9486000C9486000C9486000C948600C8
:1000A0000C9486000C9486000C9486000C948600B8
:1000B0000C9486000C9486000C9486000C948600A8
:1000C0000C9486000C9486000C9486000C94860098
:1000D0000C9486000C9486000C9486000C94860088
:1000E0000C94860011241FBECFEFD1E2DEBFCDBF3E
:1000F00000E00CBF12E0A0E0B2E001C01D92A6300B
:10010000B107E1F70E9426010C945F010C940000F6
:1001100082309105E9F08330910534F4009771F055
:100120008130910579F50DC084309105B9F08430A6
:1001300091058CF08530910529F519C089E090E092
:1001400023C021E230E0309301022093000222C05C
:1001500084E290E00EC086E090E016C082E190E07C
:10016000909301028093000281E090E013C088E147
:1001700090E090930102809300021092030210928B
:10018000020208958BE290E09093010280930002B6
:1001900082E090E0909303028093020208951F9200
:1001A0000F920FB60F920BB60F9211242F933F931D
:1001B0004F935F936F937F938F939F93AF93BF936F
:1001C000EF93FF9380910402909105028530910591
:1001D00029F4109205021092040205C00196909332
:1001E00005028093040280910402909105020E940E
:1001F000880080917C0090910202892B80937C0082
:100200001092B200FF91EF91BF91AF919F918F91AA
:100210007F916F915F914F913F912F910F900BBE06
:100220000F900FBE0F901F9018951F920F920FB650
:100230000F9211248F938091B200880F8093B300A6
:100240008F910F900FBE0F901F9018950E9446013E
:100250000E943D010E94500178948BE290E09093BF
:1002600001028093000282E090E090930302809369
:1002700002028091000282B9FCCF80EE80937C0064
:100280008FEE80937A0010927B0008958FEF81B9F2
:1002900084B987B995EA92B985B98FE088B908958C
:1002A00082E08093B00097E09093B1009AE0909341
:1002B000B2009AEF9093B300809370000895F89481
:0202C000FFCF6E
:00000001FF
