:100000000C9472000C947E000C947E000C947E0084
:100010000C947E000C947E000C947E000C947E0068
:100020000C947E000C947E000C947E000C947E0058
:100030000C947E000C948F000C947E000C947E0037
:100040000C947E000C947E000C947E000C947E0038
:100050000C947E000C947E000C947E000C947E0028
:100060000C947E000C947E000C947E000C947E0018
:100070000C947E000C947E000C947E000C947E0008
:100080000C947E000C947E000C947E000C947E00F8
:100090000C947E000C947E000C947E000C947E00E8
:1000A0000C947E000C947E000C947E000C947E00D8
:1000B0000C947E000C947E000C947E000C947E00C8
:1000C0000C947E000C947E000C947E000C947E00B8
:1000D0000C947E000C947E000C947E000C947E00A8
:1000E0000C947E0011241FBECFEFD1E2DEBFCDBF46
:1000F00000E00CBF0E949E000C94BE000C94000017
:1001000082E08093B00097E09093B1009AE09093E2
:10011000B2009AEF9093B3008093700008951F92FD
:100120000F920FB60F9211248F9382B1805882B92B
:100130008F910F900FBE0F901F9018958FEF81B980
:1001400084B987B98093010195EA92B985B99FE096
:1001500098B9809302010E94800078948091B20047
:1001600088B988B185B9FACF089580EE80937C0074
:100170008FEE80937A0010927B000895F894FFCF61
:00000001FF
