:100000000C9472000C947E000C947E000C947E0084
:100010000C947E000C947E000C947E000C947E0068
:100020000C947E000C947E000C947E000C947E0058
:100030000C947E000C9480000C947E000C947E0046
:100040000C947E000C947E000C947E000C947E0038
:100050000C947E000C947E000C947E000C947E0028
:100060000C947E000C947E000C947E000C947E0018
:100070000C947E000C947E000C947E000C947E0008
:100080000C947E000C947E000C947E000C947E00F8
:100090000C947E000C947E000C947E000C947E00E8
:1000A0000C947E000C947E000C947E000C947E00D8
:1000B0000C947E000C947E000C947E000C947E00C8
:1000C0000C947E000C947E000C947E000C947E00B8
:1000D0000C947E000C947E000C947E000C947E00A8
:1000E0000C947E0011241FBECFEFD1E2DEBFCDBF46
:1000F00000E00CBF0E948F000C94B7000C9400002D
:100100001F920F920FB60F9211248F9382B18058D5
:1001100082B98F910F900FBE0F901F9018950E947B
:100120009E000E94A8007894FFCF80EE80937C0010
:100130008FEE80937A0010927B0008958FEF81B943
:1001400084B987B995EA92B985B98FE088B90895DD
:1001500082E08093B00097E09093B1009AE0909392
:10016000B2009AEF9093B300809370000895F894D2
:02017000FFCFBF
:00000001FF
